{
  "contractName": "Canopy",
  "abi": [
    {
      "constant": true,
      "inputs": [
        {
          "name": "",
          "type": "uint256"
        }
      ],
      "name": "posts",
      "outputs": [
        {
          "name": "posterAddress",
          "type": "address"
        },
        {
          "name": "title",
          "type": "string"
        },
        {
          "name": "url",
          "type": "string"
        },
        {
          "name": "content",
          "type": "string"
        },
        {
          "name": "timePosted",
          "type": "uint256"
        },
        {
          "name": "stake",
          "type": "uint256"
        },
        {
          "name": "voteTokens",
          "type": "uint256"
        },
        {
          "name": "score",
          "type": "uint256"
        },
        {
          "name": "valuePositive",
          "type": "uint256"
        },
        {
          "name": "valueNegative",
          "type": "uint256"
        },
        {
          "name": "voterTally",
          "type": "uint256"
        },
        {
          "name": "active",
          "type": "bool"
        }
      ],
      "payable": false,
      "stateMutability": "view",
      "type": "function"
    },
    {
      "constant": true,
      "inputs": [],
      "name": "maintainersAddress",
      "outputs": [
        {
          "name": "",
          "type": "address"
        }
      ],
      "payable": false,
      "stateMutability": "view",
      "type": "function"
    },
    {
      "constant": true,
      "inputs": [
        {
          "name": "",
          "type": "uint256"
        }
      ],
      "name": "postIdToVoteTokens",
      "outputs": [
        {
          "name": "",
          "type": "uint256"
        }
      ],
      "payable": false,
      "stateMutability": "view",
      "type": "function"
    },
    {
      "constant": true,
      "inputs": [
        {
          "name": "",
          "type": "address"
        }
      ],
      "name": "userPostCount",
      "outputs": [
        {
          "name": "",
          "type": "uint256"
        }
      ],
      "payable": false,
      "stateMutability": "view",
      "type": "function"
    },
    {
      "constant": true,
      "inputs": [],
      "name": "gameMasterAddress",
      "outputs": [
        {
          "name": "",
          "type": "address"
        }
      ],
      "payable": false,
      "stateMutability": "view",
      "type": "function"
    },
    {
      "constant": true,
      "inputs": [],
      "name": "newContractAddress",
      "outputs": [
        {
          "name": "",
          "type": "address"
        }
      ],
      "payable": false,
      "stateMutability": "view",
      "type": "function"
    },
    {
      "constant": true,
      "inputs": [
        {
          "name": "",
          "type": "address"
        }
      ],
      "name": "userToVoterTally",
      "outputs": [
        {
          "name": "",
          "type": "uint256"
        }
      ],
      "payable": false,
      "stateMutability": "view",
      "type": "function"
    },
    {
      "constant": true,
      "inputs": [
        {
          "name": "",
          "type": "uint256"
        }
      ],
      "name": "postIdToOwner",
      "outputs": [
        {
          "name": "",
          "type": "address"
        }
      ],
      "payable": false,
      "stateMutability": "view",
      "type": "function"
    },
    {
      "constant": true,
      "inputs": [
        {
          "name": "",
          "type": "address"
        }
      ],
      "name": "userToTotalScore",
      "outputs": [
        {
          "name": "",
          "type": "uint256"
        }
      ],
      "payable": false,
      "stateMutability": "view",
      "type": "function"
    },
    {
      "constant": true,
      "inputs": [
        {
          "name": "",
          "type": "uint256"
        },
        {
          "name": "",
          "type": "uint256"
        }
      ],
      "name": "postIdToVoters",
      "outputs": [
        {
          "name": "",
          "type": "address"
        }
      ],
      "payable": false,
      "stateMutability": "view",
      "type": "function"
    },
    {
      "constant": true,
      "inputs": [],
      "name": "numPosts",
      "outputs": [
        {
          "name": "",
          "type": "uint256"
        }
      ],
      "payable": false,
      "stateMutability": "view",
      "type": "function"
    },
    {
      "inputs": [],
      "payable": false,
      "stateMutability": "nonpayable",
      "type": "constructor"
    },
    {
      "anonymous": false,
      "inputs": [
        {
          "indexed": true,
          "name": "postId",
          "type": "uint256"
        },
        {
          "indexed": false,
          "name": "posterAddress",
          "type": "address"
        },
        {
          "indexed": false,
          "name": "title",
          "type": "string"
        },
        {
          "indexed": false,
          "name": "url",
          "type": "string"
        },
        {
          "indexed": false,
          "name": "content",
          "type": "string"
        },
        {
          "indexed": true,
          "name": "timePosted",
          "type": "uint256"
        },
        {
          "indexed": false,
          "name": "stake",
          "type": "uint256"
        },
        {
          "indexed": false,
          "name": "score",
          "type": "uint256"
        },
        {
          "indexed": false,
          "name": "active",
          "type": "bool"
        }
      ],
      "name": "NewPost",
      "type": "event"
    },
    {
      "anonymous": false,
      "inputs": [
        {
          "indexed": true,
          "name": "newContract",
          "type": "address"
        }
      ],
      "name": "ContractUpgrade",
      "type": "event"
    },
    {
      "constant": false,
      "inputs": [
        {
          "name": "title",
          "type": "string"
        },
        {
          "name": "url",
          "type": "string"
        },
        {
          "name": "content",
          "type": "string"
        }
      ],
      "name": "createPost",
      "outputs": [
        {
          "name": "",
          "type": "uint256"
        },
        {
          "name": "",
          "type": "uint256"
        }
      ],
      "payable": true,
      "stateMutability": "payable",
      "type": "function"
    },
    {
      "constant": true,
      "inputs": [
        {
          "name": "_id",
          "type": "uint256"
        }
      ],
      "name": "getPost",
      "outputs": [
        {
          "name": "posterAddress",
          "type": "address"
        },
        {
          "name": "title",
          "type": "string"
        },
        {
          "name": "url",
          "type": "string"
        },
        {
          "name": "content",
          "type": "string"
        },
        {
          "name": "timePosted",
          "type": "uint256"
        },
        {
          "name": "stake",
          "type": "uint256"
        },
        {
          "name": "score",
          "type": "uint256"
        },
        {
          "name": "valuePositive",
          "type": "uint256"
        },
        {
          "name": "valueNegative",
          "type": "uint256"
        },
        {
          "name": "voterTally",
          "type": "uint256"
        },
        {
          "name": "active",
          "type": "bool"
        }
      ],
      "payable": false,
      "stateMutability": "view",
      "type": "function"
    },
    {
      "constant": false,
      "inputs": [
        {
          "name": "_postId",
          "type": "uint256"
        },
        {
          "name": "isPositive",
          "type": "bool"
        }
      ],
      "name": "vote",
      "outputs": [
        {
          "name": "",
          "type": "uint256"
        }
      ],
      "payable": true,
      "stateMutability": "payable",
      "type": "function"
    },
    {
      "constant": true,
      "inputs": [],
      "name": "getMostRecentPostId",
      "outputs": [
        {
          "name": "",
          "type": "uint256"
        }
      ],
      "payable": false,
      "stateMutability": "view",
      "type": "function"
    },
    {
      "constant": true,
      "inputs": [
        {
          "name": "_postId",
          "type": "uint256"
        }
      ],
      "name": "getScoreById",
      "outputs": [
        {
          "name": "",
          "type": "uint256"
        }
      ],
      "payable": false,
      "stateMutability": "view",
      "type": "function"
    },
    {
      "constant": false,
      "inputs": [
        {
          "name": "_postId",
          "type": "uint256"
        }
      ],
      "name": "cashOut",
      "outputs": [],
      "payable": true,
      "stateMutability": "payable",
      "type": "function"
    }
  ],
  "bytecode": "0x608060405234801561001057600080fd5b506128c1806100206000396000f3006080604052600436106100f1576000357c0100000000000000000000000000000000000000000000000000000000900463ffffffff1680630680fc78146100f65780630b1e7f83146101215780631423ec121461030e57806340731c2414610365578063417adc411461054b5780635c7b79f51461058c57806360cd13ea146105ac57806364e0a1ba146106035780636af04a571461065a5780637cf32c95146106b1578063932ad5611461070857806394f522b31461077557806396c3cd02146107b6578063c9d27afe1461080d578063cf406c3b1461084d578063e8a4a1eb146108c4578063ec7331e9146109c7575b600080fd5b34801561010257600080fd5b5061010b6109f2565b6040518082815260200191505060405180910390f35b34801561012d57600080fd5b5061014c60048036038101908080359060200190929190505050610a02565b604051808d73ffffffffffffffffffffffffffffffffffffffff1673ffffffffffffffffffffffffffffffffffffffff1681526020018060200180602001806020018c81526020018b81526020018a81526020018981526020018881526020018781526020018681526020018515151515815260200184810384528f818151815260200191508051906020019080838360005b838110156101fa5780820151818401526020810190506101df565b50505050905090810190601f1680156102275780820380516001836020036101000a031916815260200191505b5084810383528e818151815260200191508051906020019080838360005b83811015610260578082015181840152602081019050610245565b50505050905090810190601f16801561028d5780820380516001836020036101000a031916815260200191505b5084810382528d818151815260200191508051906020019080838360005b838110156102c65780820151818401526020810190506102ab565b50505050905090810190601f1680156102f35780820380516001836020036101000a031916815260200191505b509f5050505050505050505050505050505060405180910390f35b34801561031a57600080fd5b50610323610c66565b604051808273ffffffffffffffffffffffffffffffffffffffff1673ffffffffffffffffffffffffffffffffffffffff16815260200191505060405180910390f35b34801561037157600080fd5b5061039060048036038101908080359060200190929190505050610c8b565b604051808c73ffffffffffffffffffffffffffffffffffffffff1673ffffffffffffffffffffffffffffffffffffffff1681526020018060200180602001806020018b81526020018a81526020018981526020018881526020018781526020018681526020018515151515815260200184810384528e818151815260200191508051906020019080838360005b8381101561043857808201518184015260208101905061041d565b50505050905090810190601f1680156104655780820380516001836020036101000a031916815260200191505b5084810383528d818151815260200191508051906020019080838360005b8381101561049e578082015181840152602081019050610483565b50505050905090810190601f1680156104cb5780820380516001836020036101000a031916815260200191505b5084810382528c818151815260200191508051906020019080838360005b838110156105045780820151818401526020810190506104e9565b50505050905090810190601f1680156105315780820380516001836020036101000a031916815260200191505b509e50505050505050505050505050505060405180910390f35b34801561055757600080fd5b5061057660048036038101908080359060200190929190505050610fd8565b6040518082815260200191505060405180910390f35b6105aa60048036038101908080359060200190929190505050610ff0565b005b3480156105b857600080fd5b506105ed600480360381019080803573ffffffffffffffffffffffffffffffffffffffff16906020019092919050505061168b565b6040518082815260200191505060405180910390f35b34801561060f57600080fd5b506106186116a3565b604051808273ffffffffffffffffffffffffffffffffffffffff1673ffffffffffffffffffffffffffffffffffffffff16815260200191505060405180910390f35b34801561066657600080fd5b5061066f6116c9565b604051808273ffffffffffffffffffffffffffffffffffffffff1673ffffffffffffffffffffffffffffffffffffffff16815260200191505060405180910390f35b3480156106bd57600080fd5b506106f2600480360381019080803573ffffffffffffffffffffffffffffffffffffffff1690602001909291905050506116ef565b6040518082815260200191505060405180910390f35b34801561071457600080fd5b5061073360048036038101908080359060200190929190505050611707565b604051808273ffffffffffffffffffffffffffffffffffffffff1673ffffffffffffffffffffffffffffffffffffffff16815260200191505060405180910390f35b34801561078157600080fd5b506107a06004803603810190808035906020019092919050505061173a565b6040518082815260200191505060405180910390f35b3480156107c257600080fd5b506107f7600480360381019080803573ffffffffffffffffffffffffffffffffffffffff169060200190929190505050611764565b6040518082815260200191505060405180910390f35b6108376004803603810190808035906020019092919080351515906020019092919050505061177c565b6040518082815260200191505060405180910390f35b34801561085957600080fd5b506108826004803603810190808035906020019092919080359060200190929190505050611b0b565b604051808273ffffffffffffffffffffffffffffffffffffffff1673ffffffffffffffffffffffffffffffffffffffff16815260200191505060405180910390f35b6109aa600480360381019080803590602001908201803590602001908080601f0160208091040260200160405190810160405280939291908181526020018383808284378201915050505050509192919290803590602001908201803590602001908080601f0160208091040260200160405190810160405280939291908181526020018383808284378201915050505050509192919290803590602001908201803590602001908080601f0160208091040260200160405190810160405280939291908181526020018383808284378201915050505050509192919290505050611b58565b604051808381526020018281526020019250505060405180910390f35b3480156109d357600080fd5b506109dc612060565b6040518082815260200191505060405180910390f35b6000600160038054905003905090565b600381815481101515610a1157fe5b90600052602060002090600c02016000915090508060000160009054906101000a900473ffffffffffffffffffffffffffffffffffffffff1690806001018054600181600116156101000203166002900480601f016020809104026020016040519081016040528092919081815260200182805460018160011615610100020316600290048015610ae35780601f10610ab857610100808354040283529160200191610ae3565b820191906000526020600020905b815481529060010190602001808311610ac657829003601f168201915b505050505090806002018054600181600116156101000203166002900480601f016020809104026020016040519081016040528092919081815260200182805460018160011615610100020316600290048015610b815780601f10610b5657610100808354040283529160200191610b81565b820191906000526020600020905b815481529060010190602001808311610b6457829003601f168201915b505050505090806003018054600181600116156101000203166002900480601f016020809104026020016040519081016040528092919081815260200182805460018160011615610100020316600290048015610c1f5780601f10610bf457610100808354040283529160200191610c1f565b820191906000526020600020905b815481529060010190602001808311610c0257829003601f168201915b50505050509080600401549080600501549080600601549080600701549080600801549080600901549080600a01549080600b0160009054906101000a900460ff1690508c565b6000809054906101000a900473ffffffffffffffffffffffffffffffffffffffff1681565b600060608060606000806000806000806000610ca5612776565b60038d815481101515610cb457fe5b90600052602060002090600c020161018060405190810160405290816000820160009054906101000a900473ffffffffffffffffffffffffffffffffffffffff1673ffffffffffffffffffffffffffffffffffffffff1673ffffffffffffffffffffffffffffffffffffffff168152602001600182018054600181600116156101000203166002900480601f016020809104026020016040519081016040528092919081815260200182805460018160011615610100020316600290048015610dbe5780601f10610d9357610100808354040283529160200191610dbe565b820191906000526020600020905b815481529060010190602001808311610da157829003601f168201915b50505050508152602001600282018054600181600116156101000203166002900480601f016020809104026020016040519081016040528092919081815260200182805460018160011615610100020316600290048015610e605780601f10610e3557610100808354040283529160200191610e60565b820191906000526020600020905b815481529060010190602001808311610e4357829003601f168201915b50505050508152602001600382018054600181600116156101000203166002900480601f016020809104026020016040519081016040528092919081815260200182805460018160011615610100020316600290048015610f025780601f10610ed757610100808354040283529160200191610f02565b820191906000526020600020905b815481529060010190602001808311610ee557829003601f168201915b50505050508152602001600482015481526020016005820154815260200160068201548152602001600782015481526020016008820154815260200160098201548152602001600a8201548152602001600b820160009054906101000a900460ff1615151515815250509050806000015181602001518260400151836060015184608001518560a001518660e001518761010001518861012001518961014001518a61016001518999508898508797509b509b509b509b509b509b509b509b509b509b509b505091939597999b90929496989a50565b60076020528060005260406000206000915090505481565b6000610ffa612776565b60008060008060008060008960038181548110151561101557fe5b90600052602060002090600c020160000160009054906101000a900473ffffffffffffffffffffffffffffffffffffffff1673ffffffffffffffffffffffffffffffffffffffff163373ffffffffffffffffffffffffffffffffffffffff1614151561110f576040517f08c379a00000000000000000000000000000000000000000000000000000000081526004018080602001828103825260258152602001807f4f6e6c792074686520706f737465722063616e2075736520746869732066756e81526020017f6374696f6e00000000000000000000000000000000000000000000000000000081525060400191505060405180910390fd5b3073ffffffffffffffffffffffffffffffffffffffff16319950662386f26fc100008a101515156111a8576040517f08c379a00000000000000000000000000000000000000000000000000000000081526004018080602001828103825260178152602001807f706f6f6c2076616c756520697320746f6f20736d616c6c00000000000000000081525060200191505060405180910390fd5b60038b8154811015156111b757fe5b90600052602060002090600c020161018060405190810160405290816000820160009054906101000a900473ffffffffffffffffffffffffffffffffffffffff1673ffffffffffffffffffffffffffffffffffffffff1673ffffffffffffffffffffffffffffffffffffffff168152602001600182018054600181600116156101000203166002900480601f0160208091040260200160405190810160405280929190818152602001828054600181600116156101000203166002900480156112c15780601f10611296576101008083540402835291602001916112c1565b820191906000526020600020905b8154815290600101906020018083116112a457829003601f168201915b50505050508152602001600282018054600181600116156101000203166002900480601f0160208091040260200160405190810160405280929190818152602001828054600181600116156101000203166002900480156113635780601f1061133857610100808354040283529160200191611363565b820191906000526020600020905b81548152906001019060200180831161134657829003601f168201915b50505050508152602001600382018054600181600116156101000203166002900480601f0160208091040260200160405190810160405280929190818152602001828054600181600116156101000203166002900480156114055780601f106113da57610100808354040283529160200191611405565b820191906000526020600020905b8154815290600101906020018083116113e857829003601f168201915b50505050508152602001600482015481526020016005820154815260200160068201548152602001600782015481526020016008820154815260200160098201548152602001600a8201548152602001600b820160009054906101000a900460ff161515151581525050985088610120015189610100015101975061148e896101200151612066565b61149c8a6101000151612066565b6064028115156114a857fe5b04965088610100015160646114bc8a612066565b6114ca8c6101000151612066565b6064028115156114d657fe5b048b60a00151028115156114e657fe5b04019550604b87101515611588576040517f08c379a00000000000000000000000000000000000000000000000000000000081526004018080602001828103825260288152602001807f796f757220706f7374206661696c656420746f206d656574207468652071756181526020017f6c6974792062617200000000000000000000000000000000000000000000000081525060400191505060405180910390fd5b60028710156115995786945061159e565b600294505b848960a0015102935060028a8115156115b357fe5b048410156115c3578392506115d3565b60028a8115156115cf57fe5b0492505b82860191503373ffffffffffffffffffffffffffffffffffffffff166108fc839081150290604051600060405180830381858888f1935050505015801561161e573d6000803e3d6000fd5b50600060038c81548110151561163057fe5b90600052602060002090600c0201600b0160006101000a81548160ff021916908315150217905550600060038c81548110151561166957fe5b90600052602060002090600c0201600701819055505050505050505050505050565b60096020528060005260406000206000915090505481565b600160009054906101000a900473ffffffffffffffffffffffffffffffffffffffff1681565b600260009054906101000a900473ffffffffffffffffffffffffffffffffffffffff1681565b600b6020528060005260406000206000915090505481565b60066020528060005260406000206000915054906101000a900473ffffffffffffffffffffffffffffffffffffffff1681565b600060038281548110151561174b57fe5b90600052602060002090600c0201600701549050919050565b600a6020528060005260406000206000915090505481565b6000611786612776565b60038481548110151561179557fe5b90600052602060002090600c020161018060405190810160405290816000820160009054906101000a900473ffffffffffffffffffffffffffffffffffffffff1673ffffffffffffffffffffffffffffffffffffffff1673ffffffffffffffffffffffffffffffffffffffff168152602001600182018054600181600116156101000203166002900480601f01602080910402602001604051908101604052809291908181526020018280546001816001161561010002031660029004801561189f5780601f106118745761010080835404028352916020019161189f565b820191906000526020600020905b81548152906001019060200180831161188257829003601f168201915b50505050508152602001600282018054600181600116156101000203166002900480601f0160208091040260200160405190810160405280929190818152602001828054600181600116156101000203166002900480156119415780601f1061191657610100808354040283529160200191611941565b820191906000526020600020905b81548152906001019060200180831161192457829003601f168201915b50505050508152602001600382018054600181600116156101000203166002900480601f0160208091040260200160405190810160405280929190818152602001828054600181600116156101000203166002900480156119e35780601f106119b8576101008083540402835291602001916119e3565b820191906000526020600020905b8154815290600101906020018083116119c657829003601f168201915b50505050508152602001600482015481526020016005820154815260200160068201548152602001600782015481526020016008820154815260200160098201548152602001600a8201548152602001600b820160009054906101000a900460ff16151515158152505090508215611a6c57348161010001510181610100018181525050611a7f565b3481610120015101816101200181815250505b8061014001805180919060010181525050600b6000826000015173ffffffffffffffffffffffffffffffffffffffff1673ffffffffffffffffffffffffffffffffffffffff16815260200190815260200160002060008154809291906001019190505550611aec846120d7565b8160e0018181525050611afd612443565b8060e0015191505092915050565b600860205281600052604060002081815481101515611b2657fe5b906000526020600020016000915091509054906101000a900473ffffffffffffffffffffffffffffffffffffffff1681565b6000806000806000611b68612776565b42935033925060019150610180604051908101604052808473ffffffffffffffffffffffffffffffffffffffff1681526020018a81526020018981526020018881526020018581526020013481526020016000815260200183815260200160008152602001600081526020016000815260200160011515815250905060016003829080600181540180825580915050906001820390600052602060002090600c02016000909192909190915060008201518160000160006101000a81548173ffffffffffffffffffffffffffffffffffffffff021916908373ffffffffffffffffffffffffffffffffffffffff1602179055506020820151816001019080519060200190611c779291906127f0565b506040820151816002019080519060200190611c949291906127f0565b506060820151816003019080519060200190611cb19291906127f0565b506080820151816004015560a0820151816005015560c0820151816006015560e082015181600701556101008201518160080155610120820151816009015561014082015181600a015561016082015181600b0160006101000a81548160ff0219169083151502179055505050036004819055508260066000600454815260200190815260200160002060006101000a81548173ffffffffffffffffffffffffffffffffffffffff021916908373ffffffffffffffffffffffffffffffffffffffff160217905550600060076000600454815260200190815260200160002081905550600a60008473ffffffffffffffffffffffffffffffffffffffff1673ffffffffffffffffffffffffffffffffffffffff16815260200190815260200160002060008154809291906001019190505550600960008473ffffffffffffffffffffffffffffffffffffffff1673ffffffffffffffffffffffffffffffffffffffff16815260200190815260200160002060008154809291906001019190505550600b60008473ffffffffffffffffffffffffffffffffffffffff1673ffffffffffffffffffffffffffffffffffffffff16815260200190815260200160002060008154809291906001019190505550836004547f2afe3b2eb1c502a3f02d3811824f3766ce30da0cd150c50821551e172a218c5e858c8c8c34896001604051808873ffffffffffffffffffffffffffffffffffffffff1673ffffffffffffffffffffffffffffffffffffffff1681526020018060200180602001806020018781526020018681526020018515151515815260200184810384528a818151815260200191508051906020019080838360005b83811015611f3e578082015181840152602081019050611f23565b50505050905090810190601f168015611f6b5780820380516001836020036101000a031916815260200191505b50848103835289818151815260200191508051906020019080838360005b83811015611fa4578082015181840152602081019050611f89565b50505050905090810190601f168015611fd15780820380516001836020036101000a031916815260200191505b50848103825288818151815260200191508051906020019080838360005b8381101561200a578082015181840152602081019050611fef565b50505050905090810190601f1680156120375780820380516001836020036101000a031916815260200191505b509a505050505050505050505060405180910390a3600454829550955050505050935093915050565b60045481565b600080600083141561207b57600091506120d1565b60038311151561208e57600191506120d1565b60026001840181151561209d57fe5b0490508291505b818110156120d05780915060028182858115156120bd57fe5b04018115156120c857fe5b0490506120a4565b5b50919050565b60006120e1612776565b60008060008060006003888154811015156120f857fe5b90600052602060002090600c020161018060405190810160405290816000820160009054906101000a900473ffffffffffffffffffffffffffffffffffffffff1673ffffffffffffffffffffffffffffffffffffffff1673ffffffffffffffffffffffffffffffffffffffff168152602001600182018054600181600116156101000203166002900480601f0160208091040260200160405190810160405280929190818152602001828054600181600116156101000203166002900480156122025780601f106121d757610100808354040283529160200191612202565b820191906000526020600020905b8154815290600101906020018083116121e557829003601f168201915b50505050508152602001600282018054600181600116156101000203166002900480601f0160208091040260200160405190810160405280929190818152602001828054600181600116156101000203166002900480156122a45780601f10612279576101008083540402835291602001916122a4565b820191906000526020600020905b81548152906001019060200180831161228757829003601f168201915b50505050508152602001600382018054600181600116156101000203166002900480601f0160208091040260200160405190810160405280929190818152602001828054600181600116156101000203166002900480156123465780601f1061231b57610100808354040283529160200191612346565b820191906000526020600020905b81548152906001019060200180831161232957829003601f168201915b50505050508152602001600482015481526020016005820154815260200160068201548152602001600782015481526020016008820154815260200160098201548152602001600a8201548152602001600b820160009054906101000a900460ff16151515158152505095506123c5620186a087610100015102612066565b94506123da620186a087610120015102612066565b935085610140015192506123f386608001514203612066565b9150818381151561240057fe5b04848681151561240c57fe5b040290508060038981548110151561242057fe5b90600052602060002090600c020160070181905550809650505050505050919050565b600061244d612776565b600091505b6003805490508210156127725760038281548110151561246e57fe5b90600052602060002090600c020161018060405190810160405290816000820160009054906101000a900473ffffffffffffffffffffffffffffffffffffffff1673ffffffffffffffffffffffffffffffffffffffff1673ffffffffffffffffffffffffffffffffffffffff168152602001600182018054600181600116156101000203166002900480601f0160208091040260200160405190810160405280929190818152602001828054600181600116156101000203166002900480156125785780601f1061254d57610100808354040283529160200191612578565b820191906000526020600020905b81548152906001019060200180831161255b57829003601f168201915b50505050508152602001600282018054600181600116156101000203166002900480601f01602080910402602001604051908101604052809291908181526020018280546001816001161561010002031660029004801561261a5780601f106125ef5761010080835404028352916020019161261a565b820191906000526020600020905b8154815290600101906020018083116125fd57829003601f168201915b50505050508152602001600382018054600181600116156101000203166002900480601f0160208091040260200160405190810160405280929190818152602001828054600181600116156101000203166002900480156126bc5780601f10612691576101008083540402835291602001916126bc565b820191906000526020600020905b81548152906001019060200180831161269f57829003601f168201915b50505050508152602001600482015481526020016005820154815260200160068201548152602001600782015481526020016008820154815260200160098201548152602001600a8201548152602001600b820160009054906101000a900460ff161515151581525050905060011515816101600151151514156127655762278d008160800151420311156127595761275482610ff0565b612764565b612762826120d7565b505b5b8180600101925050612452565b5050565b61018060405190810160405280600073ffffffffffffffffffffffffffffffffffffffff168152602001606081526020016060815260200160608152602001600081526020016000815260200160008152602001600081526020016000815260200160008152602001600081526020016000151581525090565b828054600181600116156101000203166002900490600052602060002090601f016020900481019282601f1061283157805160ff191683800117855561285f565b8280016001018555821561285f579182015b8281111561285e578251825591602001919060010190612843565b5b50905061286c9190612870565b5090565b61289291905b8082111561288e576000816000905550600101612876565b5090565b905600a165627a7a723058206a6cfcf086bbdc7a5ec3ee91f2035cedeaae811e9ae59cf20beaa47702a79ecc0029",
  "source": "pragma solidity ^0.4.24;\n\n// TODO: make sure stake is actually paid method\n// TODO: stake is going to come in in Wei\n// TODO: this.balance = Wei\n//\n\ncontract Canopy {\n\n    /*** DATA HANDLING ***/\n    // add balance increase?\n    // add message\n    struct Post {\n        address posterAddress;\n        string title;\n        string url;\n        string content;\n        uint timePosted;\n        uint stake;\n        uint256 voteTokens;\n        uint256 score;\n        uint valuePositive;\n        uint valueNegative;\n        uint256 voterTally;\n        bool active;\n    }\n\n    address public maintainersAddress;\n    address public gameMasterAddress;\n    address public newContractAddress;\n\n    constructor () public {\n        // This is an empty constructor.\n    }\n\n    /*** EVENTS ***/\n    event NewPost(\n        uint256 indexed postId,\n        address posterAddress,\n        string title,\n        string url,\n        string content,\n        uint indexed timePosted,\n        uint stake,\n        uint256 score,\n        bool active\n    );\n    // TODO: event NewVote(uint256 indexed postId, )\n    event ContractUpgrade(address indexed newContract);\n\n    /*** STORAGE ***/\n    Post[] public posts;\n    uint public numPosts;\n    address[] private participants; // used for rolling jackpot\n    // below: uint256 to make sure we can fully support an enormous pool.\n\n    mapping (uint256 => address) public postIdToOwner;\n    mapping (uint256 => uint256) public postIdToVoteTokens; // ?\n    mapping (uint256 => address[]) public postIdToVoters;\n    mapping (address => uint256) public userPostCount;\n    mapping (address => uint256) public userToTotalScore; // not likely\n    mapping (address => uint256) public userToVoterTally;\n\n    /// @dev canopy is currently in Alpha. Expect upgrades; currently following CK pattern for upgrade.\n    /// @param _v2Address new address\n    /*\n    function setNewAddress(address _v2Address) external onlyGameMaster {\n        newContractAddress = _v2Address;\n        emit ContractUpgrade(_v2Address);\n    }\n    */\n\n\n    /*** CORE ***/\n    // @dev function to create a new post\n    function createPost(string title, string url, string content)\n        // TODO: make sure \"stake\" transfer is executed properly\n        public\n        payable\n        returns (\n            uint256,\n            uint256\n        ){\n        // below: intentionally ignoring warning; time is non-critical\n        uint timePosted = now;\n        address poster = msg.sender;\n        // below: start score = (1 up - 0 down) * (1 voter / 1 second since post)\n        uint256 score = 1;\n        Post memory post = Post({\n            posterAddress: poster,\n            title: title,\n            url: url,\n            content: content,\n            timePosted: timePosted,\n            stake: msg.value,\n            voteTokens: 0,\n            score: score,\n            valuePositive: 0,\n            valueNegative: 0,\n            voterTally: 0,\n            active: true\n        });\n\n        numPosts = posts.push(post) - 1;\n        postIdToOwner[numPosts] = poster;\n        postIdToVoteTokens[numPosts] = 0;\n        // below: new post is initiated with score of 1\n        // TODO: remove or refactor, score has been made more ephemeral\n        userToTotalScore[poster]++;\n        userPostCount[poster]++;\n        userToVoterTally[poster]++;\n        emit NewPost(\n            numPosts,\n            poster,\n            title,\n            url,\n            content,\n            timePosted,\n            msg.value,\n            score,\n            true\n        );\n        return (numPosts, score);\n    }\n\n    function getPost(uint256 _id)\n        public\n        view\n        returns (\n            address posterAddress,\n            string title,\n            string url,\n            string content,\n            uint timePosted,\n            uint stake,\n            uint256 score,\n            uint valuePositive,\n            uint valueNegative,\n            uint256 voterTally,\n            bool active\n        ) {\n        Post memory p = posts[_id];\n        return(\n            p.posterAddress,\n            p.title,\n            p.url,\n            p.content,\n            p.timePosted,\n            p.stake,\n            p.score,\n            p.valuePositive,\n            p.valueNegative,\n            p.voterTally,\n            p.active\n        );\n    }\n\n    // @dev pass in vote params. return the vote weight instantly, re-rank posts\n    function vote(uint256 _postId, bool isPositive) public payable returns (uint256) {\n        Post memory c = posts[_postId];\n        if (isPositive) {\n            c.valuePositive = c.valuePositive + msg.value;\n        } else {\n            c.valueNegative = c.valueNegative + msg.value;\n        }\n        // stake is not modified here. total payout is sort of equal to\n        // stake + valuePositive - valueNegative\n        c.voterTally++;\n        userToVoterTally[c.posterAddress]++;\n        c.score = scorePost(_postId);\n        updateActiveScores();\n        return c.score;\n    }\n\n    function updateActiveScores() internal {\n        for (uint i = 0; i < posts.length; i++) {\n            Post memory c = posts[i];\n            // if a post is a month old, pay it out and deactivate\n            if (c.active == true) {\n                if ((now - c.timePosted) > 30 days) {\n                    cashOut(i);\n                } else {\n                    scorePost(i);\n                }\n            }\n        }\n    }\n\n    function scorePost(uint256 _postId) internal returns (uint256) {\n        Post memory p = posts[_postId];\n        // multiply by 100000 to ensure an integer\n        uint256 uproot = sqrt((p.valuePositive) * 100000);\n        uint256 downroot = sqrt((p.valueNegative) * 100000);\n        uint256 totalVoters = p.voterTally;\n        uint256 rootTimeSincePost = sqrt(now - p.timePosted);\n        uint256 _score = (uproot / downroot) * (totalVoters / rootTimeSincePost);\n        posts[_postId].score = _score;\n        return _score;\n    }\n\n    // below method is borrowed from https://github.com/ethereum/dapp-bin/pull/50/files\n    function sqrt(uint256 x) internal pure returns (uint256 y) {\n        if (x == 0) return 0;\n        else if (x <= 3) return 1;\n        uint z = (x + 1) / 2;\n        y = x;\n        while (z < y)\n        {\n            y = z;\n            z = (x / z + z) / 2;\n        }\n    }\n\n    // @dev read from mapping - show 100 of the most recent\n    function getMostRecentPostId() public view returns (uint256) {\n        //since IDs are sequential, length of array = most recent post id\n        return posts.length - 1;\n    }\n\n    // @dev read from mapping\n    function getScoreById(uint _postId) public view returns (uint256) {\n        return posts[_postId].score;\n    }\n\n    // @dev user can choose when to cash out, make sure to check address\n    function cashOut(uint _postId) public payable onlyPoster(_postId) {\n        uint256 poolValue = address(this).balance;\n        require(poolValue >= 0.01 ether, \"pool value is too small\");\n\n        //check that payout is to posterAddress with onlyPoster\n        //Setting the Variables required\n        Post memory p = posts[_postId];\n\n        uint totalValue = p.valuePositive + p.valueNegative;\n        uint totalRatio = 100 * sqrt(p.valuePositive) / sqrt(p.valueNegative);\n        uint basePaymentToPoster = p.stake * (100 * sqrt(p.valuePositive) / sqrt(totalValue)) / 100 + p.valuePositive;\n\n        // calculate bonus\n        require(totalRatio < 75, \"your post failed to meet the quality bar\");\n        uint bonusRatio;\n        if (totalRatio < 2) {\n            bonusRatio = totalRatio;\n        } else {\n            bonusRatio = 2;\n        }\n\n        uint bonusPayout = p.stake * bonusRatio;\n\n        // make sure that bonus isn't too much of pool\n        uint totalBonus;\n        if (bonusPayout < (poolValue / 2)) {\n            totalBonus = bonusPayout;\n        } else {\n            totalBonus = (poolValue / 2);\n        }\n\n        uint totalPayout = basePaymentToPoster + totalBonus;\n        msg.sender.transfer(totalPayout);\n        posts[_postId].active = false;\n        posts[_postId].score = 0;\n    }\n\n    // @dev BONUS - get post with highest tally of votes\n    // @dev BONUS - get user's total score\n    // @dev BONUS - get user's total voter tally\n\n    /*** PERMISSIONS ***/\n    // @dev check against addresses\n    modifier onlyPoster(uint _postId) {\n        require(msg.sender == posts[_postId].posterAddress, \"Only the poster can use this function\");\n        _;\n    }\n\n    modifier onlyMaintainers() {\n        require(msg.sender == maintainersAddress, \"Only the maintainer is allowed this action\");\n        // line 19\n        _;\n    }\n\n    modifier onlyGameMaster() {\n        require(msg.sender == gameMasterAddress, \"Only the Game Master is able to change the rules\");\n        // line 20\n        _;\n    }\n\n}\n",
  "sourcePath": "/Users/bguiz/code/ethsg/canopy/contracts/Canopy.sol",
  "compiler": {
    "name": "solc",
    "version": "0.4.24+commit.e67f0147.Emscripten.clang"
  },
  "schemaVersion": "2.0.1",
  "updatedAt": "2018-12-08T19:13:12.983Z"
}