{
  "contractName": "Canopy",
  "abi": [
    {
      "constant": true,
      "inputs": [],
      "name": "maintainersAddress",
      "outputs": [
        {
          "name": "",
          "type": "address"
        }
      ],
      "payable": false,
      "stateMutability": "view",
      "type": "function"
    },
    {
      "constant": true,
      "inputs": [
        {
          "name": "",
          "type": "uint256"
        }
      ],
      "name": "postIdToScore",
      "outputs": [
        {
          "name": "",
          "type": "uint256"
        }
      ],
      "payable": false,
      "stateMutability": "view",
      "type": "function"
    },
    {
      "constant": true,
      "inputs": [
        {
          "name": "",
          "type": "address"
        }
      ],
      "name": "userPostCount",
      "outputs": [
        {
          "name": "",
          "type": "uint256"
        }
      ],
      "payable": false,
      "stateMutability": "view",
      "type": "function"
    },
    {
      "constant": true,
      "inputs": [],
      "name": "gameMasterAddress",
      "outputs": [
        {
          "name": "",
          "type": "address"
        }
      ],
      "payable": false,
      "stateMutability": "view",
      "type": "function"
    },
    {
      "constant": true,
      "inputs": [],
      "name": "newContractAddress",
      "outputs": [
        {
          "name": "",
          "type": "address"
        }
      ],
      "payable": false,
      "stateMutability": "view",
      "type": "function"
    },
    {
      "constant": true,
      "inputs": [
        {
          "name": "",
          "type": "address"
        }
      ],
      "name": "userToVoterTally",
      "outputs": [
        {
          "name": "",
          "type": "uint256"
        }
      ],
      "payable": false,
      "stateMutability": "view",
      "type": "function"
    },
    {
      "constant": true,
      "inputs": [
        {
          "name": "",
          "type": "uint256"
        }
      ],
      "name": "postIdToTime",
      "outputs": [
        {
          "name": "",
          "type": "uint256"
        }
      ],
      "payable": false,
      "stateMutability": "view",
      "type": "function"
    },
    {
      "constant": true,
      "inputs": [
        {
          "name": "",
          "type": "uint256"
        }
      ],
      "name": "postIdToOwner",
      "outputs": [
        {
          "name": "",
          "type": "address"
        }
      ],
      "payable": false,
      "stateMutability": "view",
      "type": "function"
    },
    {
      "constant": true,
      "inputs": [
        {
          "name": "",
          "type": "address"
        }
      ],
      "name": "userToTotalScore",
      "outputs": [
        {
          "name": "",
          "type": "uint256"
        }
      ],
      "payable": false,
      "stateMutability": "view",
      "type": "function"
    },
    {
      "constant": true,
      "inputs": [
        {
          "name": "",
          "type": "uint256"
        }
      ],
      "name": "top40PostIds",
      "outputs": [
        {
          "name": "",
          "type": "uint256"
        }
      ],
      "payable": false,
      "stateMutability": "view",
      "type": "function"
    },
    {
      "inputs": [],
      "payable": false,
      "stateMutability": "nonpayable",
      "type": "constructor"
    },
    {
      "anonymous": false,
      "inputs": [
        {
          "indexed": true,
          "name": "postId",
          "type": "uint256"
        },
        {
          "indexed": false,
          "name": "posterAddress",
          "type": "address"
        },
        {
          "indexed": false,
          "name": "title",
          "type": "string"
        },
        {
          "indexed": false,
          "name": "url",
          "type": "string"
        },
        {
          "indexed": true,
          "name": "timePosted",
          "type": "uint256"
        },
        {
          "indexed": false,
          "name": "stake",
          "type": "uint256"
        },
        {
          "indexed": false,
          "name": "score",
          "type": "uint256"
        },
        {
          "indexed": false,
          "name": "active",
          "type": "bool"
        }
      ],
      "name": "NewPost",
      "type": "event"
    },
    {
      "constant": false,
      "inputs": [
        {
          "name": "title",
          "type": "string"
        },
        {
          "name": "url",
          "type": "string"
        },
        {
          "name": "stake",
          "type": "uint256"
        }
      ],
      "name": "createPost",
      "outputs": [
        {
          "name": "",
          "type": "uint256"
        },
        {
          "name": "",
          "type": "uint256"
        }
      ],
      "payable": false,
      "stateMutability": "nonpayable",
      "type": "function"
    }
  ],
  "bytecode": "0x608060405234801561001057600080fd5b50610b27806100206000396000f3006080604052600436106100af576000357c0100000000000000000000000000000000000000000000000000000000900463ffffffff1680631423ec12146100b4578063201a5bc71461010b57806360cd13ea1461014c57806364e0a1ba146101a35780636af04a57146101fa578063742d931a146102515780637cf32c95146102c95780638c6c80fc14610320578063932ad5611461036157806396c3cd02146103ce578063b4a9d28214610425575b600080fd5b3480156100c057600080fd5b506100c9610466565b604051808273ffffffffffffffffffffffffffffffffffffffff1673ffffffffffffffffffffffffffffffffffffffff16815260200191505060405180910390f35b34801561011757600080fd5b506101366004803603810190808035906020019092919050505061048b565b6040518082815260200191505060405180910390f35b34801561015857600080fd5b5061018d600480360381019080803573ffffffffffffffffffffffffffffffffffffffff1690602001909291905050506104a3565b6040518082815260200191505060405180910390f35b3480156101af57600080fd5b506101b86104bb565b604051808273ffffffffffffffffffffffffffffffffffffffff1673ffffffffffffffffffffffffffffffffffffffff16815260200191505060405180910390f35b34801561020657600080fd5b5061020f6104e1565b604051808273ffffffffffffffffffffffffffffffffffffffff1673ffffffffffffffffffffffffffffffffffffffff16815260200191505060405180910390f35b34801561025d57600080fd5b506102ac60048036038101908080359060200190820180359060200191909192939192939080359060200190820180359060200191909192939192939080359060200190929190505050610507565b604051808381526020018281526020019250505060405180910390f35b3480156102d557600080fd5b5061030a600480360381019080803573ffffffffffffffffffffffffffffffffffffffff169060200190929190505050610955565b6040518082815260200191505060405180910390f35b34801561032c57600080fd5b5061034b6004803603810190808035906020019092919050505061096d565b6040518082815260200191505060405180910390f35b34801561036d57600080fd5b5061038c60048036038101908080359060200190929190505050610985565b604051808273ffffffffffffffffffffffffffffffffffffffff1673ffffffffffffffffffffffffffffffffffffffff16815260200191505060405180910390f35b3480156103da57600080fd5b5061040f600480360381019080803573ffffffffffffffffffffffffffffffffffffffff1690602001909291905050506109b8565b6040518082815260200191505060405180910390f35b34801561043157600080fd5b50610450600480360381019080803590602001909291905050506109d0565b6040518082815260200191505060405180910390f35b6000809054906101000a900473ffffffffffffffffffffffffffffffffffffffff1681565b602f6020528060005260406000206000915090505481565b60306020528060005260406000206000915090505481565b600160009054906101000a900473ffffffffffffffffffffffffffffffffffffffff1681565b600260009054906101000a900473ffffffffffffffffffffffffffffffffffffffff1681565b60008060008060006105176109ea565b600042945033935060019250610140604051908101604052808573ffffffffffffffffffffffffffffffffffffffff1681526020018d8d8080601f01602080910402602001604051908101604052809392919081815260200183838082843782019150505050505081526020018b8b8080601f016020809104026020016040519081016040528093929190818152602001838380828437820191505050505050815260200186815260200189815260200184815260200160018152602001600081526020016001815260200160011515815250915060016003839080600181540180825580915050906001820390600052602060002090600a02016000909192909190915060008201518160000160006101000a81548173ffffffffffffffffffffffffffffffffffffffff021916908373ffffffffffffffffffffffffffffffffffffffff160217905550602082015181600101908051906020019061067f929190610a56565b50604082015181600201908051906020019061069c929190610a56565b50606082015181600301556080820151816004015560a0820151816005015560c0820151816006015560e0820151816007015561010082015181600801556101208201518160090160006101000a81548160ff021916908315150217905550505003905083602d600083815260200190815260200160002060006101000a81548173ffffffffffffffffffffffffffffffffffffffff021916908373ffffffffffffffffffffffffffffffffffffffff16021790555084602e600083815260200190815260200160002081905550602f600082815260200190815260200160002060008154809291906001019190505550603160008573ffffffffffffffffffffffffffffffffffffffff1673ffffffffffffffffffffffffffffffffffffffff16815260200190815260200160002060008154809291906001019190505550603060008573ffffffffffffffffffffffffffffffffffffffff1673ffffffffffffffffffffffffffffffffffffffff16815260200190815260200160002060008154809291906001019190505550603260008573ffffffffffffffffffffffffffffffffffffffff1673ffffffffffffffffffffffffffffffffffffffff1681526020019081526020016000206000815480929190600101919050555084817f23e9d12990bd126c7fae7b04890ae725cf99028bda1f85c84ac76cec02b7f724868f8f8f8f8f8b6001604051808973ffffffffffffffffffffffffffffffffffffffff1673ffffffffffffffffffffffffffffffffffffffff16815260200180602001806020018681526020018581526020018415151515815260200183810383528a8a828181526020019250808284378201915050838103825288888281815260200192508082843782019150509a505050505050505050505060405180910390a380839650965050505050509550959350505050565b60326020528060005260406000206000915090505481565b602e6020528060005260406000206000915090505481565b602d6020528060005260406000206000915054906101000a900473ffffffffffffffffffffffffffffffffffffffff1681565b60316020528060005260406000206000915090505481565b6005816028811015156109df57fe5b016000915090505481565b61014060405190810160405280600073ffffffffffffffffffffffffffffffffffffffff16815260200160608152602001606081526020016000815260200160008152602001600081526020016000815260200160008152602001600081526020016000151581525090565b828054600181600116156101000203166002900490600052602060002090601f016020900481019282601f10610a9757805160ff1916838001178555610ac5565b82800160010185558215610ac5579182015b82811115610ac4578251825591602001919060010190610aa9565b5b509050610ad29190610ad6565b5090565b610af891905b80821115610af4576000816000905550600101610adc565b5090565b905600a165627a7a72305820be406bd5d4351fec559f0919e8e192997c7dfc9921c56fe756be18ccd855bb7c0029",
  "source": "pragma solidity ^0.4.24;\r\n\r\ncontract Canopy {\r\n\r\n    /*** DATA HANDLING ***/\r\n    struct Post {\r\n        address posterAddress;\r\n        string title;\r\n        string url;\r\n        uint256 timePosted;\r\n        uint256 stake;\r\n        uint256 score;\r\n        uint256 valuePositive;\r\n        uint256 valueNegative;\r\n        uint256 voterTally;\r\n        bool active;\r\n    }\r\n\r\n    address public maintainersAddress;\r\n    address public gameMasterAddress;\r\n    address public newContractAddress;\r\n\r\n    constructor () public {\r\n        // This is an empty constructor.\r\n    }\r\n\r\n    /*** EVENTS ***/\r\n    event NewPost(\r\n        uint256 indexed postId, \r\n        address posterAddress, \r\n        string title, \r\n        string url, \r\n        uint256 indexed timePosted, \r\n        uint256 stake, \r\n        uint256 score, \r\n        bool active\r\n    );\r\n    // TODO: event NewVote(uint256 indexed postId, )\r\n\r\n    /*** STORAGE ***/\r\n    Post[] posts;\r\n    address[] private participants; // used for rolling jackpot\r\n    uint256[40] public top40PostIds;\r\n\r\n    mapping (uint256 => address) public postIdToOwner;\r\n    mapping (uint256 => uint256) public postIdToTime;\r\n    mapping (uint256 => uint256) public postIdToScore;\r\n    mapping (address => uint256) public userPostCount;\r\n    mapping (address => uint256) public userToTotalScore;\r\n    mapping (address => uint256) public userToVoterTally;\r\n\r\n    /// @dev canopy is currently in Alpha. Expect upgrades; currently following CK pattern for upgrade.\r\n    /// @param _v2Address new address\r\n    /*\r\n    function setNewAddress(address _v2Address) external onlyGameMaster {\r\n        newContractAddress = _v2Address;\r\n        emit ContractUpgrade(_v2Address);\r\n    }\r\n    */\r\n\r\n\r\n    /*** CORE ***/\r\n    // @dev function to create a new post\r\n    function createPost(string title, string url, uint256 stake)\r\n        // TODO: make sure \"stake\" transfer is executed properly  \r\n        external \r\n        returns (\r\n            uint256,\r\n            uint256\r\n        ){\r\n        // below: intentionally ignoring warning; time is non-critical\r\n        uint256 _timePosted = now;\r\n        address _poster = msg.sender;\r\n        // below: start score = (1 up - 0 down) * (1 voter / 1 second since post)\r\n        uint _score = 1;\r\n        Post memory _post = Post({\r\n            posterAddress: _poster,\r\n            title: title,\r\n            url: url,\r\n            timePosted: _timePosted,\r\n            stake: stake,\r\n            score: _score,\r\n            // regardless of stake value, self votes always count as one vote\r\n            valuePositive: 1,\r\n            valueNegative: 0,\r\n            voterTally: 1,\r\n            active: true\r\n        });\r\n\r\n        uint256 newPostId = posts.push(_post) - 1;\r\n        postIdToOwner[newPostId] = _poster;\r\n        postIdToTime[newPostId] = _timePosted;\r\n        // below: new post is initiated with score of 1\r\n        postIdToScore[newPostId]++;\r\n        userToTotalScore[_poster]++;\r\n        userPostCount[_poster]++;\r\n        userToVoterTally[_poster]++;\r\n        emit NewPost(\r\n            newPostId, \r\n            _poster, \r\n            title, \r\n            url, \r\n            _timePosted, \r\n            stake, \r\n            _score, \r\n            true\r\n        );\r\n        return (newPostId, _score);\r\n    }\r\n\r\n    /*\r\n    function getPost(uint256 _id) \r\n        internal\r\n        view\r\n        returns (\r\n            address posterAddress,\r\n            string title,\r\n            string url,\r\n            uint256 timePosted,\r\n            uint256 stake,\r\n            uint256 score,\r\n            uint256 valuePositive,\r\n            uint256 valueNegative,\r\n            uint256 voterTally,\r\n            bool active\r\n        ) {\r\n        Post memory p = posts[_id];\r\n        return(\r\n            p.posterAddress, \r\n            p.title, \r\n            p.url, \r\n            p.timePosted, \r\n            p.stake,\r\n            p.score,\r\n            p.valuePositive,\r\n            p.valueNegative,\r\n            p.voterTally,\r\n            p.active\r\n        );\r\n    }\r\n\r\n    // @dev fetch the list of ranked posts\r\n    function getRankedPosts() internal pure {\r\n        getPost();\r\n    }\r\n\r\n    // @dev pass in vote params. return the vote weight instantly, re-rank posts\r\n    function vote() external returns (uint256) {\r\n        // voting logics\r\n        getScoreById();\r\n        rankPosts();\r\n        // update mappings\r\n        return score;\r\n    }\r\n\r\n    // @dev process to rank posts\r\n    // evaluate score and if applicable, add to post top 40\r\n    function rankPosts() internal {}\r\n\r\n    // ranking\r\n    // iterate over vote totals in list starting with floor = 0\r\n    // create inner top 10 array biggest -> smallest\r\n    // if vote total > floor, loop through inner array.\r\n    // if vote total < current object in inner array, insert and pop last element\r\n    \r\n    function rankPosts() internal {}\r\n\r\n    // @dev read from mapping\r\n    function getPostsByTime() external {}\r\n\r\n    // @dev read from mapping\r\n    function getScoreById() internal {}\r\n\r\n    // @dev user can choose when to cash out, make sure to check address\r\n    function cashOut() external payable onlyPoster {}\r\n\r\n    // @dev BONUS - get post with highest tally of votes\r\n    // @dev BONUS - get user's total score\r\n    // @dev BONUS - get user's total voter tally\r\n\r\n    /*** PERMISSIONS ***/\r\n    // @dev check against addresses \r\n    modifier onlyPoster() {\r\n        _;\r\n    }\r\n\r\n    modifier onlyMaintainers() {\r\n        // line 19\r\n        _;\r\n    }\r\n\r\n    modifier onlyGameMaster() {\r\n        // line 20\r\n        _;\r\n    }\r\n\r\n}\r\n",
  "sourcePath": "C:\\Users\\Gerald\\Desktop\\ETHSIN\\canopy2\\contracts\\Canopy.sol",
  "compiler": {
    "name": "solc",
    "version": "0.4.24+commit.e67f0147.Emscripten.clang"
  },
  "schemaVersion": "2.0.1",
  "updatedAt": "2018-12-08T15:16:18.869Z"
}